{
	"Life.sol": {
		"InheritanceWallet": {
			"abi": [
				{
					"inputs": [
						{
							"internalType": "address payable",
							"name": "_beneficiary",
							"type": "address"
						}
					],
					"stateMutability": "payable",
					"type": "constructor"
				},
				{
					"anonymous": false,
					"inputs": [
						{
							"indexed": false,
							"internalType": "address",
							"name": "walletHolder",
							"type": "address"
						},
						{
							"indexed": false,
							"internalType": "address",
							"name": "beneficiary",
							"type": "address"
						},
						{
							"indexed": false,
							"internalType": "uint256",
							"name": "amount",
							"type": "uint256"
						}
					],
					"name": "FundsTransferred",
					"type": "event"
				},
				{
					"anonymous": false,
					"inputs": [
						{
							"indexed": false,
							"internalType": "address",
							"name": "walletHolder",
							"type": "address"
						},
						{
							"indexed": false,
							"internalType": "uint256",
							"name": "timestamp",
							"type": "uint256"
						}
					],
					"name": "WalletInteracted",
					"type": "event"
				},
				{
					"inputs": [],
					"name": "beneficiary",
					"outputs": [
						{
							"internalType": "address payable",
							"name": "",
							"type": "address"
						}
					],
					"stateMutability": "view",
					"type": "function"
				},
				{
					"inputs": [],
					"name": "checkInactivity",
					"outputs": [],
					"stateMutability": "nonpayable",
					"type": "function"
				},
				{
					"inputs": [],
					"name": "inactivityLimit",
					"outputs": [
						{
							"internalType": "uint256",
							"name": "",
							"type": "uint256"
						}
					],
					"stateMutability": "view",
					"type": "function"
				},
				{
					"inputs": [],
					"name": "lastActiveTime",
					"outputs": [
						{
							"internalType": "uint256",
							"name": "",
							"type": "uint256"
						}
					],
					"stateMutability": "view",
					"type": "function"
				},
				{
					"inputs": [],
					"name": "updateActivity",
					"outputs": [],
					"stateMutability": "nonpayable",
					"type": "function"
				},
				{
					"inputs": [],
					"name": "walletHolder",
					"outputs": [
						{
							"internalType": "address",
							"name": "",
							"type": "address"
						}
					],
					"stateMutability": "view",
					"type": "function"
				},
				{
					"stateMutability": "payable",
					"type": "receive"
				}
			],
			"devdoc": {
				"kind": "dev",
				"methods": {},
				"version": 1
			},
			"evm": {
				"assembly": "    /* \"Life.sol\":58:2142  contract InheritanceWallet {... */\n  mstore(0x40, 0x80)\n    /* \"Life.sol\":845:1116  constructor(address payable _beneficiary) payable {... */\n  mload(0x40)\n  sub(codesize, bytecodeSize)\n  dup1\n  bytecodeSize\n  dup4\n  codecopy\n  dup2\n  dup2\n  add\n  0x40\n  mstore\n  dup2\n  add\n  swap1\n  tag_1\n  swap2\n  swap1\n  tag_2\n  jump\t// in\ntag_1:\n    /* \"Life.sol\":925:926  0 */\n  0x00\n    /* \"Life.sol\":913:922  msg.value */\n  callvalue\n    /* \"Life.sol\":913:926  msg.value > 0 */\n  gt\n    /* \"Life.sol\":905:965  require(msg.value > 0, \"Must fund the wallet with some ETH\") */\n  tag_5\n  jumpi\n  mload(0x40)\n  0x08c379a000000000000000000000000000000000000000000000000000000000\n  dup2\n  mstore\n  0x04\n  add\n  tag_6\n  swap1\n  tag_7\n  jump\t// in\ntag_6:\n  mload(0x40)\n  dup1\n  swap2\n  sub\n  swap1\n  revert\ntag_5:\n    /* \"Life.sol\":991:1001  msg.sender */\n  caller\n    /* \"Life.sol\":976:988  walletHolder */\n  0x00\n  0x00\n    /* \"Life.sol\":976:1001  walletHolder = msg.sender */\n  0x0100\n  exp\n  dup2\n  sload\n  dup2\n  0xffffffffffffffffffffffffffffffffffffffff\n  mul\n  not\n  and\n  swap1\n  dup4\n  0xffffffffffffffffffffffffffffffffffffffff\n  and\n  mul\n  or\n  swap1\n  sstore\n  pop\n    /* \"Life.sol\":1025:1037  _beneficiary */\n  dup1\n    /* \"Life.sol\":1011:1022  beneficiary */\n  0x01\n  0x00\n    /* \"Life.sol\":1011:1037  beneficiary = _beneficiary */\n  0x0100\n  exp\n  dup2\n  sload\n  dup2\n  0xffffffffffffffffffffffffffffffffffffffff\n  mul\n  not\n  and\n  swap1\n  dup4\n  0xffffffffffffffffffffffffffffffffffffffff\n  and\n  mul\n  or\n  swap1\n  sstore\n  pop\n    /* \"Life.sol\":1064:1079  block.timestamp */\n  timestamp\n    /* \"Life.sol\":1047:1061  lastActiveTime */\n  0x02\n    /* \"Life.sol\":1047:1079  lastActiveTime = block.timestamp */\n  dup2\n  swap1\n  sstore\n  pop\n    /* \"Life.sol\":845:1116  constructor(address payable _beneficiary) payable {... */\n  pop\n    /* \"Life.sol\":58:2142  contract InheritanceWallet {... */\n  jump(tag_8)\n    /* \"#utility.yul\":88:205   */\ntag_10:\n    /* \"#utility.yul\":197:198   */\n  0x00\n    /* \"#utility.yul\":194:195   */\n  0x00\n    /* \"#utility.yul\":187:199   */\n  revert\n    /* \"#utility.yul\":334:460   */\ntag_12:\n    /* \"#utility.yul\":371:378   */\n  0x00\n    /* \"#utility.yul\":411:453   */\n  0xffffffffffffffffffffffffffffffffffffffff\n    /* \"#utility.yul\":404:409   */\n  dup3\n    /* \"#utility.yul\":400:454   */\n  and\n    /* \"#utility.yul\":389:454   */\n  swap1\n  pop\n    /* \"#utility.yul\":334:460   */\n  swap2\n  swap1\n  pop\n  jump\t// out\n    /* \"#utility.yul\":466:570   */\ntag_13:\n    /* \"#utility.yul\":511:518   */\n  0x00\n    /* \"#utility.yul\":540:564   */\n  tag_25\n    /* \"#utility.yul\":558:563   */\n  dup3\n    /* \"#utility.yul\":540:564   */\n  tag_12\n  jump\t// in\ntag_25:\n    /* \"#utility.yul\":529:564   */\n  swap1\n  pop\n    /* \"#utility.yul\":466:570   */\n  swap2\n  swap1\n  pop\n  jump\t// out\n    /* \"#utility.yul\":576:714   */\ntag_14:\n    /* \"#utility.yul\":657:689   */\n  tag_27\n    /* \"#utility.yul\":683:688   */\n  dup2\n    /* \"#utility.yul\":657:689   */\n  tag_13\n  jump\t// in\ntag_27:\n    /* \"#utility.yul\":650:655   */\n  dup2\n    /* \"#utility.yul\":647:690   */\n  eq\n    /* \"#utility.yul\":637:708   */\n  tag_28\n  jumpi\n    /* \"#utility.yul\":704:705   */\n  0x00\n    /* \"#utility.yul\":701:702   */\n  0x00\n    /* \"#utility.yul\":694:706   */\n  revert\n    /* \"#utility.yul\":637:708   */\ntag_28:\n    /* \"#utility.yul\":576:714   */\n  pop\n  jump\t// out\n    /* \"#utility.yul\":720:879   */\ntag_15:\n    /* \"#utility.yul\":785:790   */\n  0x00\n    /* \"#utility.yul\":816:822   */\n  dup2\n    /* \"#utility.yul\":810:823   */\n  mload\n    /* \"#utility.yul\":801:823   */\n  swap1\n  pop\n    /* \"#utility.yul\":832:873   */\n  tag_30\n    /* \"#utility.yul\":867:872   */\n  dup2\n    /* \"#utility.yul\":832:873   */\n  tag_14\n  jump\t// in\ntag_30:\n    /* \"#utility.yul\":720:879   */\n  swap3\n  swap2\n  pop\n  pop\n  jump\t// out\n    /* \"#utility.yul\":885:1252   */\ntag_2:\n    /* \"#utility.yul\":963:969   */\n  0x00\n    /* \"#utility.yul\":1012:1014   */\n  0x20\n    /* \"#utility.yul\":1000:1009   */\n  dup3\n    /* \"#utility.yul\":991:998   */\n  dup5\n    /* \"#utility.yul\":987:1010   */\n  sub\n    /* \"#utility.yul\":983:1015   */\n  slt\n    /* \"#utility.yul\":980:1099   */\n  iszero\n  tag_32\n  jumpi\n    /* \"#utility.yul\":1018:1097   */\n  tag_33\n  tag_10\n  jump\t// in\ntag_33:\n    /* \"#utility.yul\":980:1099   */\ntag_32:\n    /* \"#utility.yul\":1138:1139   */\n  0x00\n    /* \"#utility.yul\":1163:1235   */\n  tag_34\n    /* \"#utility.yul\":1227:1234   */\n  dup5\n    /* \"#utility.yul\":1218:1224   */\n  dup3\n    /* \"#utility.yul\":1207:1216   */\n  dup6\n    /* \"#utility.yul\":1203:1225   */\n  add\n    /* \"#utility.yul\":1163:1235   */\n  tag_15\n  jump\t// in\ntag_34:\n    /* \"#utility.yul\":1153:1235   */\n  swap2\n  pop\n    /* \"#utility.yul\":1109:1245   */\n  pop\n    /* \"#utility.yul\":885:1252   */\n  swap3\n  swap2\n  pop\n  pop\n  jump\t// out\n    /* \"#utility.yul\":1258:1427   */\ntag_16:\n    /* \"#utility.yul\":1342:1353   */\n  0x00\n    /* \"#utility.yul\":1376:1382   */\n  dup3\n    /* \"#utility.yul\":1371:1374   */\n  dup3\n    /* \"#utility.yul\":1364:1383   */\n  mstore\n    /* \"#utility.yul\":1416:1420   */\n  0x20\n    /* \"#utility.yul\":1411:1414   */\n  dup3\n    /* \"#utility.yul\":1407:1421   */\n  add\n    /* \"#utility.yul\":1392:1421   */\n  swap1\n  pop\n    /* \"#utility.yul\":1258:1427   */\n  swap3\n  swap2\n  pop\n  pop\n  jump\t// out\n    /* \"#utility.yul\":1433:1654   */\ntag_17:\n    /* \"#utility.yul\":1573:1607   */\n  0x4d7573742066756e64207468652077616c6c6574207769746820736f6d652045\n    /* \"#utility.yul\":1569:1570   */\n  0x00\n    /* \"#utility.yul\":1561:1567   */\n  dup3\n    /* \"#utility.yul\":1557:1571   */\n  add\n    /* \"#utility.yul\":1550:1608   */\n  mstore\n    /* \"#utility.yul\":1642:1646   */\n  0x5448000000000000000000000000000000000000000000000000000000000000\n    /* \"#utility.yul\":1637:1639   */\n  0x20\n    /* \"#utility.yul\":1629:1635   */\n  dup3\n    /* \"#utility.yul\":1625:1640   */\n  add\n    /* \"#utility.yul\":1618:1647   */\n  mstore\n    /* \"#utility.yul\":1433:1654   */\n  pop\n  jump\t// out\n    /* \"#utility.yul\":1660:2026   */\ntag_18:\n    /* \"#utility.yul\":1802:1805   */\n  0x00\n    /* \"#utility.yul\":1823:1890   */\n  tag_38\n    /* \"#utility.yul\":1887:1889   */\n  0x22\n    /* \"#utility.yul\":1882:1885   */\n  dup4\n    /* \"#utility.yul\":1823:1890   */\n  tag_16\n  jump\t// in\ntag_38:\n    /* \"#utility.yul\":1816:1890   */\n  swap2\n  pop\n    /* \"#utility.yul\":1899:1992   */\n  tag_39\n    /* \"#utility.yul\":1988:1991   */\n  dup3\n    /* \"#utility.yul\":1899:1992   */\n  tag_17\n  jump\t// in\ntag_39:\n    /* \"#utility.yul\":2017:2019   */\n  0x40\n    /* \"#utility.yul\":2012:2015   */\n  dup3\n    /* \"#utility.yul\":2008:2020   */\n  add\n    /* \"#utility.yul\":2001:2020   */\n  swap1\n  pop\n    /* \"#utility.yul\":1660:2026   */\n  swap2\n  swap1\n  pop\n  jump\t// out\n    /* \"#utility.yul\":2032:2451   */\ntag_7:\n    /* \"#utility.yul\":2198:2202   */\n  0x00\n    /* \"#utility.yul\":2236:2238   */\n  0x20\n    /* \"#utility.yul\":2225:2234   */\n  dup3\n    /* \"#utility.yul\":2221:2239   */\n  add\n    /* \"#utility.yul\":2213:2239   */\n  swap1\n  pop\n    /* \"#utility.yul\":2285:2294   */\n  dup2\n    /* \"#utility.yul\":2279:2283   */\n  dup2\n    /* \"#utility.yul\":2275:2295   */\n  sub\n    /* \"#utility.yul\":2271:2272   */\n  0x00\n    /* \"#utility.yul\":2260:2269   */\n  dup4\n    /* \"#utility.yul\":2256:2273   */\n  add\n    /* \"#utility.yul\":2249:2296   */\n  mstore\n    /* \"#utility.yul\":2313:2444   */\n  tag_41\n    /* \"#utility.yul\":2439:2443   */\n  dup2\n    /* \"#utility.yul\":2313:2444   */\n  tag_18\n  jump\t// in\ntag_41:\n    /* \"#utility.yul\":2305:2444   */\n  swap1\n  pop\n    /* \"#utility.yul\":2032:2451   */\n  swap2\n  swap1\n  pop\n  jump\t// out\n    /* \"Life.sol\":58:2142  contract InheritanceWallet {... */\ntag_8:\n  dataSize(sub_0)\n  dup1\n  dataOffset(sub_0)\n  0x00\n  codecopy\n  0x00\n  return\nstop\n\nsub_0: assembly {\n        /* \"Life.sol\":58:2142  contract InheritanceWallet {... */\n      mstore(0x40, 0x80)\n      jumpi(tag_1, lt(calldatasize, 0x04))\n      shr(0xe0, calldataload(0x00))\n      dup1\n      0x1b0e1ffa\n      eq\n      tag_3\n      jumpi\n      dup1\n      0x38af3eed\n      eq\n      tag_4\n      jumpi\n      dup1\n      0xa0d1345f\n      eq\n      tag_5\n      jumpi\n      dup1\n      0xbf2e4865\n      eq\n      tag_6\n      jumpi\n      dup1\n      0xe79402aa\n      eq\n      tag_7\n      jumpi\n      dup1\n      0xea8932d8\n      eq\n      tag_8\n      jumpi\n      jump(tag_2)\n    tag_1:\n      jumpi(tag_2, calldatasize)\n      stop\n    tag_2:\n      revert(0x00, 0x00)\n        /* \"Life.sol\":1210:1372  function updateActivity() external onlyWalletHolder {... */\n    tag_3:\n      callvalue\n      dup1\n      iszero\n      tag_11\n      jumpi\n      revert(0x00, 0x00)\n    tag_11:\n      pop\n      tag_12\n      tag_13\n      jump\t// in\n    tag_12:\n      stop\n        /* \"Life.sol\":147:181  address payable public beneficiary */\n    tag_4:\n      callvalue\n      dup1\n      iszero\n      tag_14\n      jumpi\n      revert(0x00, 0x00)\n    tag_14:\n      pop\n      tag_15\n      tag_16\n      jump\t// in\n    tag_15:\n      mload(0x40)\n      tag_17\n      swap2\n      swap1\n      tag_18\n      jump\t// in\n    tag_17:\n      mload(0x40)\n      dup1\n      swap2\n      sub\n      swap1\n      return\n        /* \"Life.sol\":114:141  address public walletHolder */\n    tag_5:\n      callvalue\n      dup1\n      iszero\n      tag_19\n      jumpi\n      revert(0x00, 0x00)\n    tag_19:\n      pop\n      tag_20\n      tag_21\n      jump\t// in\n    tag_20:\n      mload(0x40)\n      tag_22\n      swap2\n      swap1\n      tag_23\n      jump\t// in\n    tag_22:\n      mload(0x40)\n      dup1\n      swap2\n      sub\n      swap1\n      return\n        /* \"Life.sol\":222:266  uint256 public constant inactivityLimit = 60 */\n    tag_6:\n      callvalue\n      dup1\n      iszero\n      tag_24\n      jumpi\n      revert(0x00, 0x00)\n    tag_24:\n      pop\n      tag_25\n      tag_26\n      jump\t// in\n    tag_25:\n      mload(0x40)\n      tag_27\n      swap2\n      swap1\n      tag_28\n      jump\t// in\n    tag_27:\n      mload(0x40)\n      dup1\n      swap2\n      sub\n      swap1\n      return\n        /* \"Life.sol\":1474:1772  function checkInactivity() external {... */\n    tag_7:\n      callvalue\n      dup1\n      iszero\n      tag_29\n      jumpi\n      revert(0x00, 0x00)\n    tag_29:\n      pop\n      tag_30\n      tag_31\n      jump\t// in\n    tag_30:\n      stop\n        /* \"Life.sol\":187:216  uint256 public lastActiveTime */\n    tag_8:\n      callvalue\n      dup1\n      iszero\n      tag_32\n      jumpi\n      revert(0x00, 0x00)\n    tag_32:\n      pop\n      tag_33\n      tag_34\n      jump\t// in\n    tag_33:\n      mload(0x40)\n      tag_35\n      swap2\n      swap1\n      tag_28\n      jump\t// in\n    tag_35:\n      mload(0x40)\n      dup1\n      swap2\n      sub\n      swap1\n      return\n        /* \"Life.sol\":1210:1372  function updateActivity() external onlyWalletHolder {... */\n    tag_13:\n        /* \"Life.sol\":678:690  walletHolder */\n      0x00\n      0x00\n      swap1\n      sload\n      swap1\n      0x0100\n      exp\n      swap1\n      div\n      0xffffffffffffffffffffffffffffffffffffffff\n      and\n        /* \"Life.sol\":664:690  msg.sender == walletHolder */\n      0xffffffffffffffffffffffffffffffffffffffff\n      and\n        /* \"Life.sol\":664:674  msg.sender */\n      caller\n        /* \"Life.sol\":664:690  msg.sender == walletHolder */\n      0xffffffffffffffffffffffffffffffffffffffff\n      and\n      eq\n        /* \"Life.sol\":656:740  require(msg.sender == walletHolder, \"Only the wallet holder can call this function\") */\n      tag_37\n      jumpi\n      mload(0x40)\n      0x08c379a000000000000000000000000000000000000000000000000000000000\n      dup2\n      mstore\n      0x04\n      add\n      tag_38\n      swap1\n      tag_39\n      jump\t// in\n    tag_38:\n      mload(0x40)\n      dup1\n      swap2\n      sub\n      swap1\n      revert\n    tag_37:\n        /* \"Life.sol\":1289:1304  block.timestamp */\n      timestamp\n        /* \"Life.sol\":1272:1286  lastActiveTime */\n      0x02\n        /* \"Life.sol\":1272:1304  lastActiveTime = block.timestamp */\n      dup2\n      swap1\n      sstore\n      pop\n        /* \"Life.sol\":1319:1365  WalletInteracted(walletHolder, lastActiveTime) */\n      0xf83057aaac7ffdb8feffe00dd61f59ee27a79a2a5e10c07b422256182f37dd9e\n        /* \"Life.sol\":1336:1348  walletHolder */\n      0x00\n      0x00\n      swap1\n      sload\n      swap1\n      0x0100\n      exp\n      swap1\n      div\n      0xffffffffffffffffffffffffffffffffffffffff\n      and\n        /* \"Life.sol\":1350:1364  lastActiveTime */\n      sload(0x02)\n        /* \"Life.sol\":1319:1365  WalletInteracted(walletHolder, lastActiveTime) */\n      mload(0x40)\n      tag_41\n      swap3\n      swap2\n      swap1\n      tag_42\n      jump\t// in\n    tag_41:\n      mload(0x40)\n      dup1\n      swap2\n      sub\n      swap1\n      log1\n        /* \"Life.sol\":1210:1372  function updateActivity() external onlyWalletHolder {... */\n      jump\t// out\n        /* \"Life.sol\":147:181  address payable public beneficiary */\n    tag_16:\n      0x01\n      0x00\n      swap1\n      sload\n      swap1\n      0x0100\n      exp\n      swap1\n      div\n      0xffffffffffffffffffffffffffffffffffffffff\n      and\n      dup2\n      jump\t// out\n        /* \"Life.sol\":114:141  address public walletHolder */\n    tag_21:\n      0x00\n      0x00\n      swap1\n      sload\n      swap1\n      0x0100\n      exp\n      swap1\n      div\n      0xffffffffffffffffffffffffffffffffffffffff\n      and\n      dup2\n      jump\t// out\n        /* \"Life.sol\":222:266  uint256 public constant inactivityLimit = 60 */\n    tag_26:\n        /* \"Life.sol\":264:266  60 */\n      0x3c\n        /* \"Life.sol\":222:266  uint256 public constant inactivityLimit = 60 */\n      dup2\n      jump\t// out\n        /* \"Life.sol\":1474:1772  function checkInactivity() external {... */\n    tag_31:\n        /* \"Life.sol\":264:266  60 */\n      0x3c\n        /* \"Life.sol\":1546:1560  lastActiveTime */\n      sload(0x02)\n        /* \"Life.sol\":1546:1578  lastActiveTime + inactivityLimit */\n      tag_44\n      swap2\n      swap1\n      tag_45\n      jump\t// in\n    tag_44:\n        /* \"Life.sol\":1528:1543  block.timestamp */\n      timestamp\n        /* \"Life.sol\":1528:1578  block.timestamp > lastActiveTime + inactivityLimit */\n      gt\n        /* \"Life.sol\":1520:1605  require(block.timestamp > lastActiveTime + inactivityLimit, \"Wallet is still active\") */\n      tag_46\n      jumpi\n      mload(0x40)\n      0x08c379a000000000000000000000000000000000000000000000000000000000\n      dup2\n      mstore\n      0x04\n      add\n      tag_47\n      swap1\n      tag_48\n      jump\t// in\n    tag_47:\n      mload(0x40)\n      dup1\n      swap2\n      sub\n      swap1\n      revert\n    tag_46:\n        /* \"Life.sol\":1647:1648  0 */\n      0x00\n        /* \"Life.sol\":1623:1644  address(this).balance */\n      selfbalance\n        /* \"Life.sol\":1623:1648  address(this).balance > 0 */\n      gt\n        /* \"Life.sol\":1615:1673  require(address(this).balance > 0, \"No funds to transfer\") */\n      tag_49\n      jumpi\n      mload(0x40)\n      0x08c379a000000000000000000000000000000000000000000000000000000000\n      dup2\n      mstore\n      0x04\n      add\n      tag_50\n      swap1\n      tag_51\n      jump\t// in\n    tag_50:\n      mload(0x40)\n      dup1\n      swap2\n      sub\n      swap1\n      revert\n    tag_49:\n        /* \"Life.sol\":1749:1765  _transferFunds() */\n      tag_52\n        /* \"Life.sol\":1749:1763  _transferFunds */\n      tag_53\n        /* \"Life.sol\":1749:1765  _transferFunds() */\n      jump\t// in\n    tag_52:\n        /* \"Life.sol\":1474:1772  function checkInactivity() external {... */\n      jump\t// out\n        /* \"Life.sol\":187:216  uint256 public lastActiveTime */\n    tag_34:\n      sload(0x02)\n      dup2\n      jump\t// out\n        /* \"Life.sol\":1854:2052  function _transferFunds() internal {... */\n    tag_53:\n        /* \"Life.sol\":1899:1914  uint256 balance */\n      0x00\n        /* \"Life.sol\":1917:1938  address(this).balance */\n      selfbalance\n        /* \"Life.sol\":1899:1938  uint256 balance = address(this).balance */\n      swap1\n      pop\n        /* \"Life.sol\":1948:1959  beneficiary */\n      0x01\n      0x00\n      swap1\n      sload\n      swap1\n      0x0100\n      exp\n      swap1\n      div\n      0xffffffffffffffffffffffffffffffffffffffff\n      and\n        /* \"Life.sol\":1948:1968  beneficiary.transfer */\n      0xffffffffffffffffffffffffffffffffffffffff\n      and\n        /* \"Life.sol\":1948:1977  beneficiary.transfer(balance) */\n      0x08fc\n        /* \"Life.sol\":1969:1976  balance */\n      dup3\n        /* \"Life.sol\":1948:1977  beneficiary.transfer(balance) */\n      swap1\n      dup2\n      iszero\n      mul\n      swap1\n      mload(0x40)\n      0x00\n      mload(0x40)\n      dup1\n      dup4\n      sub\n      dup2\n      dup6\n      dup9\n      dup9\n      call\n      swap4\n      pop\n      pop\n      pop\n      pop\n      iszero\n      dup1\n      iszero\n      tag_56\n      jumpi\n      returndatacopy(0x00, 0x00, returndatasize)\n      revert(0x00, returndatasize)\n    tag_56:\n      pop\n        /* \"Life.sol\":1993:2045  FundsTransferred(walletHolder, beneficiary, balance) */\n      0x78e6250172d8e0a57d8d41f480f13581571a2d27bb2a93f5f7bd2511f5c22a6c\n        /* \"Life.sol\":2010:2022  walletHolder */\n      0x00\n      0x00\n      swap1\n      sload\n      swap1\n      0x0100\n      exp\n      swap1\n      div\n      0xffffffffffffffffffffffffffffffffffffffff\n      and\n        /* \"Life.sol\":2024:2035  beneficiary */\n      0x01\n      0x00\n      swap1\n      sload\n      swap1\n      0x0100\n      exp\n      swap1\n      div\n      0xffffffffffffffffffffffffffffffffffffffff\n      and\n        /* \"Life.sol\":2037:2044  balance */\n      dup4\n        /* \"Life.sol\":1993:2045  FundsTransferred(walletHolder, beneficiary, balance) */\n      mload(0x40)\n      tag_57\n      swap4\n      swap3\n      swap2\n      swap1\n      tag_58\n      jump\t// in\n    tag_57:\n      mload(0x40)\n      dup1\n      swap2\n      sub\n      swap1\n      log1\n        /* \"Life.sol\":1889:2052  {... */\n      pop\n        /* \"Life.sol\":1854:2052  function _transferFunds() internal {... */\n      jump\t// out\n        /* \"#utility.yul\":7:133   */\n    tag_59:\n        /* \"#utility.yul\":44:51   */\n      0x00\n        /* \"#utility.yul\":84:126   */\n      0xffffffffffffffffffffffffffffffffffffffff\n        /* \"#utility.yul\":77:82   */\n      dup3\n        /* \"#utility.yul\":73:127   */\n      and\n        /* \"#utility.yul\":62:127   */\n      swap1\n      pop\n        /* \"#utility.yul\":7:133   */\n      swap2\n      swap1\n      pop\n      jump\t// out\n        /* \"#utility.yul\":139:243   */\n    tag_60:\n        /* \"#utility.yul\":184:191   */\n      0x00\n        /* \"#utility.yul\":213:237   */\n      tag_82\n        /* \"#utility.yul\":231:236   */\n      dup3\n        /* \"#utility.yul\":213:237   */\n      tag_59\n      jump\t// in\n    tag_82:\n        /* \"#utility.yul\":202:237   */\n      swap1\n      pop\n        /* \"#utility.yul\":139:243   */\n      swap2\n      swap1\n      pop\n      jump\t// out\n        /* \"#utility.yul\":249:391   */\n    tag_61:\n        /* \"#utility.yul\":352:384   */\n      tag_84\n        /* \"#utility.yul\":378:383   */\n      dup2\n        /* \"#utility.yul\":352:384   */\n      tag_60\n      jump\t// in\n    tag_84:\n        /* \"#utility.yul\":347:350   */\n      dup3\n        /* \"#utility.yul\":340:385   */\n      mstore\n        /* \"#utility.yul\":249:391   */\n      pop\n      pop\n      jump\t// out\n        /* \"#utility.yul\":397:651   */\n    tag_18:\n        /* \"#utility.yul\":506:510   */\n      0x00\n        /* \"#utility.yul\":544:546   */\n      0x20\n        /* \"#utility.yul\":533:542   */\n      dup3\n        /* \"#utility.yul\":529:547   */\n      add\n        /* \"#utility.yul\":521:547   */\n      swap1\n      pop\n        /* \"#utility.yul\":557:644   */\n      tag_86\n        /* \"#utility.yul\":641:642   */\n      0x00\n        /* \"#utility.yul\":630:639   */\n      dup4\n        /* \"#utility.yul\":626:643   */\n      add\n        /* \"#utility.yul\":617:623   */\n      dup5\n        /* \"#utility.yul\":557:644   */\n      tag_61\n      jump\t// in\n    tag_86:\n        /* \"#utility.yul\":397:651   */\n      swap3\n      swap2\n      pop\n      pop\n      jump\t// out\n        /* \"#utility.yul\":657:753   */\n    tag_62:\n        /* \"#utility.yul\":694:701   */\n      0x00\n        /* \"#utility.yul\":723:747   */\n      tag_88\n        /* \"#utility.yul\":741:746   */\n      dup3\n        /* \"#utility.yul\":723:747   */\n      tag_59\n      jump\t// in\n    tag_88:\n        /* \"#utility.yul\":712:747   */\n      swap1\n      pop\n        /* \"#utility.yul\":657:753   */\n      swap2\n      swap1\n      pop\n      jump\t// out\n        /* \"#utility.yul\":759:877   */\n    tag_63:\n        /* \"#utility.yul\":846:870   */\n      tag_90\n        /* \"#utility.yul\":864:869   */\n      dup2\n        /* \"#utility.yul\":846:870   */\n      tag_62\n      jump\t// in\n    tag_90:\n        /* \"#utility.yul\":841:844   */\n      dup3\n        /* \"#utility.yul\":834:871   */\n      mstore\n        /* \"#utility.yul\":759:877   */\n      pop\n      pop\n      jump\t// out\n        /* \"#utility.yul\":883:1105   */\n    tag_23:\n        /* \"#utility.yul\":976:980   */\n      0x00\n        /* \"#utility.yul\":1014:1016   */\n      0x20\n        /* \"#utility.yul\":1003:1012   */\n      dup3\n        /* \"#utility.yul\":999:1017   */\n      add\n        /* \"#utility.yul\":991:1017   */\n      swap1\n      pop\n        /* \"#utility.yul\":1027:1098   */\n      tag_92\n        /* \"#utility.yul\":1095:1096   */\n      0x00\n        /* \"#utility.yul\":1084:1093   */\n      dup4\n        /* \"#utility.yul\":1080:1097   */\n      add\n        /* \"#utility.yul\":1071:1077   */\n      dup5\n        /* \"#utility.yul\":1027:1098   */\n      tag_63\n      jump\t// in\n    tag_92:\n        /* \"#utility.yul\":883:1105   */\n      swap3\n      swap2\n      pop\n      pop\n      jump\t// out\n        /* \"#utility.yul\":1111:1188   */\n    tag_64:\n        /* \"#utility.yul\":1148:1155   */\n      0x00\n        /* \"#utility.yul\":1177:1182   */\n      dup2\n        /* \"#utility.yul\":1166:1182   */\n      swap1\n      pop\n        /* \"#utility.yul\":1111:1188   */\n      swap2\n      swap1\n      pop\n      jump\t// out\n        /* \"#utility.yul\":1194:1312   */\n    tag_65:\n        /* \"#utility.yul\":1281:1305   */\n      tag_95\n        /* \"#utility.yul\":1299:1304   */\n      dup2\n        /* \"#utility.yul\":1281:1305   */\n      tag_64\n      jump\t// in\n    tag_95:\n        /* \"#utility.yul\":1276:1279   */\n      dup3\n        /* \"#utility.yul\":1269:1306   */\n      mstore\n        /* \"#utility.yul\":1194:1312   */\n      pop\n      pop\n      jump\t// out\n        /* \"#utility.yul\":1318:1540   */\n    tag_28:\n        /* \"#utility.yul\":1411:1415   */\n      0x00\n        /* \"#utility.yul\":1449:1451   */\n      0x20\n        /* \"#utility.yul\":1438:1447   */\n      dup3\n        /* \"#utility.yul\":1434:1452   */\n      add\n        /* \"#utility.yul\":1426:1452   */\n      swap1\n      pop\n        /* \"#utility.yul\":1462:1533   */\n      tag_97\n        /* \"#utility.yul\":1530:1531   */\n      0x00\n        /* \"#utility.yul\":1519:1528   */\n      dup4\n        /* \"#utility.yul\":1515:1532   */\n      add\n        /* \"#utility.yul\":1506:1512   */\n      dup5\n        /* \"#utility.yul\":1462:1533   */\n      tag_65\n      jump\t// in\n    tag_97:\n        /* \"#utility.yul\":1318:1540   */\n      swap3\n      swap2\n      pop\n      pop\n      jump\t// out\n        /* \"#utility.yul\":1546:1715   */\n    tag_66:\n        /* \"#utility.yul\":1630:1641   */\n      0x00\n        /* \"#utility.yul\":1664:1670   */\n      dup3\n        /* \"#utility.yul\":1659:1662   */\n      dup3\n        /* \"#utility.yul\":1652:1671   */\n      mstore\n        /* \"#utility.yul\":1704:1708   */\n      0x20\n        /* \"#utility.yul\":1699:1702   */\n      dup3\n        /* \"#utility.yul\":1695:1709   */\n      add\n        /* \"#utility.yul\":1680:1709   */\n      swap1\n      pop\n        /* \"#utility.yul\":1546:1715   */\n      swap3\n      swap2\n      pop\n      pop\n      jump\t// out\n        /* \"#utility.yul\":1721:1953   */\n    tag_67:\n        /* \"#utility.yul\":1861:1895   */\n      0x4f6e6c79207468652077616c6c657420686f6c6465722063616e2063616c6c20\n        /* \"#utility.yul\":1857:1858   */\n      0x00\n        /* \"#utility.yul\":1849:1855   */\n      dup3\n        /* \"#utility.yul\":1845:1859   */\n      add\n        /* \"#utility.yul\":1838:1896   */\n      mstore\n        /* \"#utility.yul\":1930:1945   */\n      0x746869732066756e6374696f6e00000000000000000000000000000000000000\n        /* \"#utility.yul\":1925:1927   */\n      0x20\n        /* \"#utility.yul\":1917:1923   */\n      dup3\n        /* \"#utility.yul\":1913:1928   */\n      add\n        /* \"#utility.yul\":1906:1946   */\n      mstore\n        /* \"#utility.yul\":1721:1953   */\n      pop\n      jump\t// out\n        /* \"#utility.yul\":1959:2325   */\n    tag_68:\n        /* \"#utility.yul\":2101:2104   */\n      0x00\n        /* \"#utility.yul\":2122:2189   */\n      tag_101\n        /* \"#utility.yul\":2186:2188   */\n      0x2d\n        /* \"#utility.yul\":2181:2184   */\n      dup4\n        /* \"#utility.yul\":2122:2189   */\n      tag_66\n      jump\t// in\n    tag_101:\n        /* \"#utility.yul\":2115:2189   */\n      swap2\n      pop\n        /* \"#utility.yul\":2198:2291   */\n      tag_102\n        /* \"#utility.yul\":2287:2290   */\n      dup3\n        /* \"#utility.yul\":2198:2291   */\n      tag_67\n      jump\t// in\n    tag_102:\n        /* \"#utility.yul\":2316:2318   */\n      0x40\n        /* \"#utility.yul\":2311:2314   */\n      dup3\n        /* \"#utility.yul\":2307:2319   */\n      add\n        /* \"#utility.yul\":2300:2319   */\n      swap1\n      pop\n        /* \"#utility.yul\":1959:2325   */\n      swap2\n      swap1\n      pop\n      jump\t// out\n        /* \"#utility.yul\":2331:2750   */\n    tag_39:\n        /* \"#utility.yul\":2497:2501   */\n      0x00\n        /* \"#utility.yul\":2535:2537   */\n      0x20\n        /* \"#utility.yul\":2524:2533   */\n      dup3\n        /* \"#utility.yul\":2520:2538   */\n      add\n        /* \"#utility.yul\":2512:2538   */\n      swap1\n      pop\n        /* \"#utility.yul\":2584:2593   */\n      dup2\n        /* \"#utility.yul\":2578:2582   */\n      dup2\n        /* \"#utility.yul\":2574:2594   */\n      sub\n        /* \"#utility.yul\":2570:2571   */\n      0x00\n        /* \"#utility.yul\":2559:2568   */\n      dup4\n        /* \"#utility.yul\":2555:2572   */\n      add\n        /* \"#utility.yul\":2548:2595   */\n      mstore\n        /* \"#utility.yul\":2612:2743   */\n      tag_104\n        /* \"#utility.yul\":2738:2742   */\n      dup2\n        /* \"#utility.yul\":2612:2743   */\n      tag_68\n      jump\t// in\n    tag_104:\n        /* \"#utility.yul\":2604:2743   */\n      swap1\n      pop\n        /* \"#utility.yul\":2331:2750   */\n      swap2\n      swap1\n      pop\n      jump\t// out\n        /* \"#utility.yul\":2756:3088   */\n    tag_42:\n        /* \"#utility.yul\":2877:2881   */\n      0x00\n        /* \"#utility.yul\":2915:2917   */\n      0x40\n        /* \"#utility.yul\":2904:2913   */\n      dup3\n        /* \"#utility.yul\":2900:2918   */\n      add\n        /* \"#utility.yul\":2892:2918   */\n      swap1\n      pop\n        /* \"#utility.yul\":2928:2999   */\n      tag_106\n        /* \"#utility.yul\":2996:2997   */\n      0x00\n        /* \"#utility.yul\":2985:2994   */\n      dup4\n        /* \"#utility.yul\":2981:2998   */\n      add\n        /* \"#utility.yul\":2972:2978   */\n      dup6\n        /* \"#utility.yul\":2928:2999   */\n      tag_63\n      jump\t// in\n    tag_106:\n        /* \"#utility.yul\":3009:3081   */\n      tag_107\n        /* \"#utility.yul\":3077:3079   */\n      0x20\n        /* \"#utility.yul\":3066:3075   */\n      dup4\n        /* \"#utility.yul\":3062:3080   */\n      add\n        /* \"#utility.yul\":3053:3059   */\n      dup5\n        /* \"#utility.yul\":3009:3081   */\n      tag_65\n      jump\t// in\n    tag_107:\n        /* \"#utility.yul\":2756:3088   */\n      swap4\n      swap3\n      pop\n      pop\n      pop\n      jump\t// out\n        /* \"#utility.yul\":3094:3274   */\n    tag_69:\n        /* \"#utility.yul\":3142:3219   */\n      0x4e487b7100000000000000000000000000000000000000000000000000000000\n        /* \"#utility.yul\":3139:3140   */\n      0x00\n        /* \"#utility.yul\":3132:3220   */\n      mstore\n        /* \"#utility.yul\":3239:3243   */\n      0x11\n        /* \"#utility.yul\":3236:3237   */\n      0x04\n        /* \"#utility.yul\":3229:3244   */\n      mstore\n        /* \"#utility.yul\":3263:3267   */\n      0x24\n        /* \"#utility.yul\":3260:3261   */\n      0x00\n        /* \"#utility.yul\":3253:3268   */\n      revert\n        /* \"#utility.yul\":3280:3471   */\n    tag_45:\n        /* \"#utility.yul\":3320:3323   */\n      0x00\n        /* \"#utility.yul\":3339:3359   */\n      tag_110\n        /* \"#utility.yul\":3357:3358   */\n      dup3\n        /* \"#utility.yul\":3339:3359   */\n      tag_64\n      jump\t// in\n    tag_110:\n        /* \"#utility.yul\":3334:3359   */\n      swap2\n      pop\n        /* \"#utility.yul\":3373:3393   */\n      tag_111\n        /* \"#utility.yul\":3391:3392   */\n      dup4\n        /* \"#utility.yul\":3373:3393   */\n      tag_64\n      jump\t// in\n    tag_111:\n        /* \"#utility.yul\":3368:3393   */\n      swap3\n      pop\n        /* \"#utility.yul\":3416:3417   */\n      dup3\n        /* \"#utility.yul\":3413:3414   */\n      dup3\n        /* \"#utility.yul\":3409:3418   */\n      add\n        /* \"#utility.yul\":3402:3418   */\n      swap1\n      pop\n        /* \"#utility.yul\":3437:3440   */\n      dup1\n        /* \"#utility.yul\":3434:3435   */\n      dup3\n        /* \"#utility.yul\":3431:3441   */\n      gt\n        /* \"#utility.yul\":3428:3464   */\n      iszero\n      tag_112\n      jumpi\n        /* \"#utility.yul\":3444:3462   */\n      tag_113\n      tag_69\n      jump\t// in\n    tag_113:\n        /* \"#utility.yul\":3428:3464   */\n    tag_112:\n        /* \"#utility.yul\":3280:3471   */\n      swap3\n      swap2\n      pop\n      pop\n      jump\t// out\n        /* \"#utility.yul\":3477:3649   */\n    tag_70:\n        /* \"#utility.yul\":3617:3641   */\n      0x57616c6c6574206973207374696c6c2061637469766500000000000000000000\n        /* \"#utility.yul\":3613:3614   */\n      0x00\n        /* \"#utility.yul\":3605:3611   */\n      dup3\n        /* \"#utility.yul\":3601:3615   */\n      add\n        /* \"#utility.yul\":3594:3642   */\n      mstore\n        /* \"#utility.yul\":3477:3649   */\n      pop\n      jump\t// out\n        /* \"#utility.yul\":3655:4021   */\n    tag_71:\n        /* \"#utility.yul\":3797:3800   */\n      0x00\n        /* \"#utility.yul\":3818:3885   */\n      tag_116\n        /* \"#utility.yul\":3882:3884   */\n      0x16\n        /* \"#utility.yul\":3877:3880   */\n      dup4\n        /* \"#utility.yul\":3818:3885   */\n      tag_66\n      jump\t// in\n    tag_116:\n        /* \"#utility.yul\":3811:3885   */\n      swap2\n      pop\n        /* \"#utility.yul\":3894:3987   */\n      tag_117\n        /* \"#utility.yul\":3983:3986   */\n      dup3\n        /* \"#utility.yul\":3894:3987   */\n      tag_70\n      jump\t// in\n    tag_117:\n        /* \"#utility.yul\":4012:4014   */\n      0x20\n        /* \"#utility.yul\":4007:4010   */\n      dup3\n        /* \"#utility.yul\":4003:4015   */\n      add\n        /* \"#utility.yul\":3996:4015   */\n      swap1\n      pop\n        /* \"#utility.yul\":3655:4021   */\n      swap2\n      swap1\n      pop\n      jump\t// out\n        /* \"#utility.yul\":4027:4446   */\n    tag_48:\n        /* \"#utility.yul\":4193:4197   */\n      0x00\n        /* \"#utility.yul\":4231:4233   */\n      0x20\n        /* \"#utility.yul\":4220:4229   */\n      dup3\n        /* \"#utility.yul\":4216:4234   */\n      add\n        /* \"#utility.yul\":4208:4234   */\n      swap1\n      pop\n        /* \"#utility.yul\":4280:4289   */\n      dup2\n        /* \"#utility.yul\":4274:4278   */\n      dup2\n        /* \"#utility.yul\":4270:4290   */\n      sub\n        /* \"#utility.yul\":4266:4267   */\n      0x00\n        /* \"#utility.yul\":4255:4264   */\n      dup4\n        /* \"#utility.yul\":4251:4268   */\n      add\n        /* \"#utility.yul\":4244:4291   */\n      mstore\n        /* \"#utility.yul\":4308:4439   */\n      tag_119\n        /* \"#utility.yul\":4434:4438   */\n      dup2\n        /* \"#utility.yul\":4308:4439   */\n      tag_71\n      jump\t// in\n    tag_119:\n        /* \"#utility.yul\":4300:4439   */\n      swap1\n      pop\n        /* \"#utility.yul\":4027:4446   */\n      swap2\n      swap1\n      pop\n      jump\t// out\n        /* \"#utility.yul\":4452:4622   */\n    tag_72:\n        /* \"#utility.yul\":4592:4614   */\n      0x4e6f2066756e647320746f207472616e73666572000000000000000000000000\n        /* \"#utility.yul\":4588:4589   */\n      0x00\n        /* \"#utility.yul\":4580:4586   */\n      dup3\n        /* \"#utility.yul\":4576:4590   */\n      add\n        /* \"#utility.yul\":4569:4615   */\n      mstore\n        /* \"#utility.yul\":4452:4622   */\n      pop\n      jump\t// out\n        /* \"#utility.yul\":4628:4994   */\n    tag_73:\n        /* \"#utility.yul\":4770:4773   */\n      0x00\n        /* \"#utility.yul\":4791:4858   */\n      tag_122\n        /* \"#utility.yul\":4855:4857   */\n      0x14\n        /* \"#utility.yul\":4850:4853   */\n      dup4\n        /* \"#utility.yul\":4791:4858   */\n      tag_66\n      jump\t// in\n    tag_122:\n        /* \"#utility.yul\":4784:4858   */\n      swap2\n      pop\n        /* \"#utility.yul\":4867:4960   */\n      tag_123\n        /* \"#utility.yul\":4956:4959   */\n      dup3\n        /* \"#utility.yul\":4867:4960   */\n      tag_72\n      jump\t// in\n    tag_123:\n        /* \"#utility.yul\":4985:4987   */\n      0x20\n        /* \"#utility.yul\":4980:4983   */\n      dup3\n        /* \"#utility.yul\":4976:4988   */\n      add\n        /* \"#utility.yul\":4969:4988   */\n      swap1\n      pop\n        /* \"#utility.yul\":4628:4994   */\n      swap2\n      swap1\n      pop\n      jump\t// out\n        /* \"#utility.yul\":5000:5419   */\n    tag_51:\n        /* \"#utility.yul\":5166:5170   */\n      0x00\n        /* \"#utility.yul\":5204:5206   */\n      0x20\n        /* \"#utility.yul\":5193:5202   */\n      dup3\n        /* \"#utility.yul\":5189:5207   */\n      add\n        /* \"#utility.yul\":5181:5207   */\n      swap1\n      pop\n        /* \"#utility.yul\":5253:5262   */\n      dup2\n        /* \"#utility.yul\":5247:5251   */\n      dup2\n        /* \"#utility.yul\":5243:5263   */\n      sub\n        /* \"#utility.yul\":5239:5240   */\n      0x00\n        /* \"#utility.yul\":5228:5237   */\n      dup4\n        /* \"#utility.yul\":5224:5241   */\n      add\n        /* \"#utility.yul\":5217:5264   */\n      mstore\n        /* \"#utility.yul\":5281:5412   */\n      tag_125\n        /* \"#utility.yul\":5407:5411   */\n      dup2\n        /* \"#utility.yul\":5281:5412   */\n      tag_73\n      jump\t// in\n    tag_125:\n        /* \"#utility.yul\":5273:5412   */\n      swap1\n      pop\n        /* \"#utility.yul\":5000:5419   */\n      swap2\n      swap1\n      pop\n      jump\t// out\n        /* \"#utility.yul\":5425:5485   */\n    tag_74:\n        /* \"#utility.yul\":5453:5456   */\n      0x00\n        /* \"#utility.yul\":5474:5479   */\n      dup2\n        /* \"#utility.yul\":5467:5479   */\n      swap1\n      pop\n        /* \"#utility.yul\":5425:5485   */\n      swap2\n      swap1\n      pop\n      jump\t// out\n        /* \"#utility.yul\":5491:5633   */\n    tag_75:\n        /* \"#utility.yul\":5541:5550   */\n      0x00\n        /* \"#utility.yul\":5574:5627   */\n      tag_128\n        /* \"#utility.yul\":5592:5626   */\n      tag_129\n        /* \"#utility.yul\":5601:5625   */\n      tag_130\n        /* \"#utility.yul\":5619:5624   */\n      dup5\n        /* \"#utility.yul\":5601:5625   */\n      tag_59\n      jump\t// in\n    tag_130:\n        /* \"#utility.yul\":5592:5626   */\n      tag_74\n      jump\t// in\n    tag_129:\n        /* \"#utility.yul\":5574:5627   */\n      tag_59\n      jump\t// in\n    tag_128:\n        /* \"#utility.yul\":5561:5627   */\n      swap1\n      pop\n        /* \"#utility.yul\":5491:5633   */\n      swap2\n      swap1\n      pop\n      jump\t// out\n        /* \"#utility.yul\":5639:5765   */\n    tag_76:\n        /* \"#utility.yul\":5689:5698   */\n      0x00\n        /* \"#utility.yul\":5722:5759   */\n      tag_132\n        /* \"#utility.yul\":5753:5758   */\n      dup3\n        /* \"#utility.yul\":5722:5759   */\n      tag_75\n      jump\t// in\n    tag_132:\n        /* \"#utility.yul\":5709:5759   */\n      swap1\n      pop\n        /* \"#utility.yul\":5639:5765   */\n      swap2\n      swap1\n      pop\n      jump\t// out\n        /* \"#utility.yul\":5771:5905   */\n    tag_77:\n        /* \"#utility.yul\":5829:5838   */\n      0x00\n        /* \"#utility.yul\":5862:5899   */\n      tag_134\n        /* \"#utility.yul\":5893:5898   */\n      dup3\n        /* \"#utility.yul\":5862:5899   */\n      tag_76\n      jump\t// in\n    tag_134:\n        /* \"#utility.yul\":5849:5899   */\n      swap1\n      pop\n        /* \"#utility.yul\":5771:5905   */\n      swap2\n      swap1\n      pop\n      jump\t// out\n        /* \"#utility.yul\":5911:6058   */\n    tag_78:\n        /* \"#utility.yul\":6006:6051   */\n      tag_136\n        /* \"#utility.yul\":6045:6050   */\n      dup2\n        /* \"#utility.yul\":6006:6051   */\n      tag_77\n      jump\t// in\n    tag_136:\n        /* \"#utility.yul\":6001:6004   */\n      dup3\n        /* \"#utility.yul\":5994:6052   */\n      mstore\n        /* \"#utility.yul\":5911:6058   */\n      pop\n      pop\n      jump\t// out\n        /* \"#utility.yul\":6064:6522   */\n    tag_58:\n        /* \"#utility.yul\":6221:6225   */\n      0x00\n        /* \"#utility.yul\":6259:6261   */\n      0x60\n        /* \"#utility.yul\":6248:6257   */\n      dup3\n        /* \"#utility.yul\":6244:6262   */\n      add\n        /* \"#utility.yul\":6236:6262   */\n      swap1\n      pop\n        /* \"#utility.yul\":6272:6343   */\n      tag_138\n        /* \"#utility.yul\":6340:6341   */\n      0x00\n        /* \"#utility.yul\":6329:6338   */\n      dup4\n        /* \"#utility.yul\":6325:6342   */\n      add\n        /* \"#utility.yul\":6316:6322   */\n      dup7\n        /* \"#utility.yul\":6272:6343   */\n      tag_63\n      jump\t// in\n    tag_138:\n        /* \"#utility.yul\":6353:6433   */\n      tag_139\n        /* \"#utility.yul\":6429:6431   */\n      0x20\n        /* \"#utility.yul\":6418:6427   */\n      dup4\n        /* \"#utility.yul\":6414:6432   */\n      add\n        /* \"#utility.yul\":6405:6411   */\n      dup6\n        /* \"#utility.yul\":6353:6433   */\n      tag_78\n      jump\t// in\n    tag_139:\n        /* \"#utility.yul\":6443:6515   */\n      tag_140\n        /* \"#utility.yul\":6511:6513   */\n      0x40\n        /* \"#utility.yul\":6500:6509   */\n      dup4\n        /* \"#utility.yul\":6496:6514   */\n      add\n        /* \"#utility.yul\":6487:6493   */\n      dup5\n        /* \"#utility.yul\":6443:6515   */\n      tag_65\n      jump\t// in\n    tag_140:\n        /* \"#utility.yul\":6064:6522   */\n      swap5\n      swap4\n      pop\n      pop\n      pop\n      pop\n      jump\t// out\n\n    auxdata: 0xa2646970667358221220b987e95fa43f40c9b56a395b34ed0f384619cb4a665ceaf2ba70607277250bd164736f6c634300081b0033\n}\n",
				"bytecode": {
					"linkReferences": {},
					"object": "60806040526040516109a53803806109a583398181016040528101906100259190610151565b5f3411610067576040517f08c379a000000000000000000000000000000000000000000000000000000000815260040161005e906101fc565b60405180910390fd5b335f5f6101000a81548173ffffffffffffffffffffffffffffffffffffffff021916908373ffffffffffffffffffffffffffffffffffffffff1602179055508060015f6101000a81548173ffffffffffffffffffffffffffffffffffffffff021916908373ffffffffffffffffffffffffffffffffffffffff160217905550426002819055505061021a565b5f5ffd5b5f73ffffffffffffffffffffffffffffffffffffffff82169050919050565b5f610120826100f7565b9050919050565b61013081610116565b811461013a575f5ffd5b50565b5f8151905061014b81610127565b92915050565b5f60208284031215610166576101656100f3565b5b5f6101738482850161013d565b91505092915050565b5f82825260208201905092915050565b7f4d7573742066756e64207468652077616c6c6574207769746820736f6d6520455f8201527f5448000000000000000000000000000000000000000000000000000000000000602082015250565b5f6101e660228361017c565b91506101f18261018c565b604082019050919050565b5f6020820190508181035f830152610213816101da565b9050919050565b61077e806102275f395ff3fe608060405260043610610058575f3560e01c80631b0e1ffa1461006357806338af3eed14610079578063a0d1345f146100a3578063bf2e4865146100cd578063e79402aa146100f7578063ea8932d81461010d5761005f565b3661005f57005b5f5ffd5b34801561006e575f5ffd5b50610077610137565b005b348015610084575f5ffd5b5061008d610229565b60405161009a9190610440565b60405180910390f35b3480156100ae575f5ffd5b506100b761024e565b6040516100c49190610479565b60405180910390f35b3480156100d8575f5ffd5b506100e1610272565b6040516100ee91906104aa565b60405180910390f35b348015610102575f5ffd5b5061010b610277565b005b348015610118575f5ffd5b50610121610313565b60405161012e91906104aa565b60405180910390f35b5f5f9054906101000a900473ffffffffffffffffffffffffffffffffffffffff1673ffffffffffffffffffffffffffffffffffffffff163373ffffffffffffffffffffffffffffffffffffffff16146101c5576040517f08c379a00000000000000000000000000000000000000000000000000000000081526004016101bc90610543565b60405180910390fd5b426002819055507ff83057aaac7ffdb8feffe00dd61f59ee27a79a2a5e10c07b422256182f37dd9e5f5f9054906101000a900473ffffffffffffffffffffffffffffffffffffffff1660025460405161021f929190610561565b60405180910390a1565b60015f9054906101000a900473ffffffffffffffffffffffffffffffffffffffff1681565b5f5f9054906101000a900473ffffffffffffffffffffffffffffffffffffffff1681565b603c81565b603c60025461028691906105b5565b42116102c7576040517f08c379a00000000000000000000000000000000000000000000000000000000081526004016102be90610632565b60405180910390fd5b5f4711610309576040517f08c379a00000000000000000000000000000000000000000000000000000000081526004016103009061069a565b60405180910390fd5b610311610319565b565b60025481565b5f47905060015f9054906101000a900473ffffffffffffffffffffffffffffffffffffffff1673ffffffffffffffffffffffffffffffffffffffff166108fc8290811502906040515f60405180830381858888f19350505050158015610381573d5f5f3e3d5ffd5b507f78e6250172d8e0a57d8d41f480f13581571a2d27bb2a93f5f7bd2511f5c22a6c5f5f9054906101000a900473ffffffffffffffffffffffffffffffffffffffff1660015f9054906101000a900473ffffffffffffffffffffffffffffffffffffffff16836040516103f693929190610713565b60405180910390a150565b5f73ffffffffffffffffffffffffffffffffffffffff82169050919050565b5f61042a82610401565b9050919050565b61043a81610420565b82525050565b5f6020820190506104535f830184610431565b92915050565b5f61046382610401565b9050919050565b61047381610459565b82525050565b5f60208201905061048c5f83018461046a565b92915050565b5f819050919050565b6104a481610492565b82525050565b5f6020820190506104bd5f83018461049b565b92915050565b5f82825260208201905092915050565b7f4f6e6c79207468652077616c6c657420686f6c6465722063616e2063616c6c205f8201527f746869732066756e6374696f6e00000000000000000000000000000000000000602082015250565b5f61052d602d836104c3565b9150610538826104d3565b604082019050919050565b5f6020820190508181035f83015261055a81610521565b9050919050565b5f6040820190506105745f83018561046a565b610581602083018461049b565b9392505050565b7f4e487b71000000000000000000000000000000000000000000000000000000005f52601160045260245ffd5b5f6105bf82610492565b91506105ca83610492565b92508282019050808211156105e2576105e1610588565b5b92915050565b7f57616c6c6574206973207374696c6c20616374697665000000000000000000005f82015250565b5f61061c6016836104c3565b9150610627826105e8565b602082019050919050565b5f6020820190508181035f83015261064981610610565b9050919050565b7f4e6f2066756e647320746f207472616e736665720000000000000000000000005f82015250565b5f6106846014836104c3565b915061068f82610650565b602082019050919050565b5f6020820190508181035f8301526106b181610678565b9050919050565b5f819050919050565b5f6106db6106d66106d184610401565b6106b8565b610401565b9050919050565b5f6106ec826106c1565b9050919050565b5f6106fd826106e2565b9050919050565b61070d816106f3565b82525050565b5f6060820190506107265f83018661046a565b6107336020830185610704565b610740604083018461049b565b94935050505056fea2646970667358221220b987e95fa43f40c9b56a395b34ed0f384619cb4a665ceaf2ba70607277250bd164736f6c634300081b0033",
					"opcodes": "PUSH1 0x80 PUSH1 0x40 MSTORE PUSH1 0x40 MLOAD PUSH2 0x9A5 CODESIZE SUB DUP1 PUSH2 0x9A5 DUP4 CODECOPY DUP2 DUP2 ADD PUSH1 0x40 MSTORE DUP2 ADD SWAP1 PUSH2 0x25 SWAP2 SWAP1 PUSH2 0x151 JUMP JUMPDEST PUSH0 CALLVALUE GT PUSH2 0x67 JUMPI PUSH1 0x40 MLOAD PUSH32 0x8C379A000000000000000000000000000000000000000000000000000000000 DUP2 MSTORE PUSH1 0x4 ADD PUSH2 0x5E SWAP1 PUSH2 0x1FC JUMP JUMPDEST PUSH1 0x40 MLOAD DUP1 SWAP2 SUB SWAP1 REVERT JUMPDEST CALLER PUSH0 PUSH0 PUSH2 0x100 EXP DUP2 SLOAD DUP2 PUSH20 0xFFFFFFFFFFFFFFFFFFFFFFFFFFFFFFFFFFFFFFFF MUL NOT AND SWAP1 DUP4 PUSH20 0xFFFFFFFFFFFFFFFFFFFFFFFFFFFFFFFFFFFFFFFF AND MUL OR SWAP1 SSTORE POP DUP1 PUSH1 0x1 PUSH0 PUSH2 0x100 EXP DUP2 SLOAD DUP2 PUSH20 0xFFFFFFFFFFFFFFFFFFFFFFFFFFFFFFFFFFFFFFFF MUL NOT AND SWAP1 DUP4 PUSH20 0xFFFFFFFFFFFFFFFFFFFFFFFFFFFFFFFFFFFFFFFF AND MUL OR SWAP1 SSTORE POP TIMESTAMP PUSH1 0x2 DUP2 SWAP1 SSTORE POP POP PUSH2 0x21A JUMP JUMPDEST PUSH0 PUSH0 REVERT JUMPDEST PUSH0 PUSH20 0xFFFFFFFFFFFFFFFFFFFFFFFFFFFFFFFFFFFFFFFF DUP3 AND SWAP1 POP SWAP2 SWAP1 POP JUMP JUMPDEST PUSH0 PUSH2 0x120 DUP3 PUSH2 0xF7 JUMP JUMPDEST SWAP1 POP SWAP2 SWAP1 POP JUMP JUMPDEST PUSH2 0x130 DUP2 PUSH2 0x116 JUMP JUMPDEST DUP2 EQ PUSH2 0x13A JUMPI PUSH0 PUSH0 REVERT JUMPDEST POP JUMP JUMPDEST PUSH0 DUP2 MLOAD SWAP1 POP PUSH2 0x14B DUP2 PUSH2 0x127 JUMP JUMPDEST SWAP3 SWAP2 POP POP JUMP JUMPDEST PUSH0 PUSH1 0x20 DUP3 DUP5 SUB SLT ISZERO PUSH2 0x166 JUMPI PUSH2 0x165 PUSH2 0xF3 JUMP JUMPDEST JUMPDEST PUSH0 PUSH2 0x173 DUP5 DUP3 DUP6 ADD PUSH2 0x13D JUMP JUMPDEST SWAP2 POP POP SWAP3 SWAP2 POP POP JUMP JUMPDEST PUSH0 DUP3 DUP3 MSTORE PUSH1 0x20 DUP3 ADD SWAP1 POP SWAP3 SWAP2 POP POP JUMP JUMPDEST PUSH32 0x4D7573742066756E64207468652077616C6C6574207769746820736F6D652045 PUSH0 DUP3 ADD MSTORE PUSH32 0x5448000000000000000000000000000000000000000000000000000000000000 PUSH1 0x20 DUP3 ADD MSTORE POP JUMP JUMPDEST PUSH0 PUSH2 0x1E6 PUSH1 0x22 DUP4 PUSH2 0x17C JUMP JUMPDEST SWAP2 POP PUSH2 0x1F1 DUP3 PUSH2 0x18C JUMP JUMPDEST PUSH1 0x40 DUP3 ADD SWAP1 POP SWAP2 SWAP1 POP JUMP JUMPDEST PUSH0 PUSH1 0x20 DUP3 ADD SWAP1 POP DUP2 DUP2 SUB PUSH0 DUP4 ADD MSTORE PUSH2 0x213 DUP2 PUSH2 0x1DA JUMP JUMPDEST SWAP1 POP SWAP2 SWAP1 POP JUMP JUMPDEST PUSH2 0x77E DUP1 PUSH2 0x227 PUSH0 CODECOPY PUSH0 RETURN INVALID PUSH1 0x80 PUSH1 0x40 MSTORE PUSH1 0x4 CALLDATASIZE LT PUSH2 0x58 JUMPI PUSH0 CALLDATALOAD PUSH1 0xE0 SHR DUP1 PUSH4 0x1B0E1FFA EQ PUSH2 0x63 JUMPI DUP1 PUSH4 0x38AF3EED EQ PUSH2 0x79 JUMPI DUP1 PUSH4 0xA0D1345F EQ PUSH2 0xA3 JUMPI DUP1 PUSH4 0xBF2E4865 EQ PUSH2 0xCD JUMPI DUP1 PUSH4 0xE79402AA EQ PUSH2 0xF7 JUMPI DUP1 PUSH4 0xEA8932D8 EQ PUSH2 0x10D JUMPI PUSH2 0x5F JUMP JUMPDEST CALLDATASIZE PUSH2 0x5F JUMPI STOP JUMPDEST PUSH0 PUSH0 REVERT JUMPDEST CALLVALUE DUP1 ISZERO PUSH2 0x6E JUMPI PUSH0 PUSH0 REVERT JUMPDEST POP PUSH2 0x77 PUSH2 0x137 JUMP JUMPDEST STOP JUMPDEST CALLVALUE DUP1 ISZERO PUSH2 0x84 JUMPI PUSH0 PUSH0 REVERT JUMPDEST POP PUSH2 0x8D PUSH2 0x229 JUMP JUMPDEST PUSH1 0x40 MLOAD PUSH2 0x9A SWAP2 SWAP1 PUSH2 0x440 JUMP JUMPDEST PUSH1 0x40 MLOAD DUP1 SWAP2 SUB SWAP1 RETURN JUMPDEST CALLVALUE DUP1 ISZERO PUSH2 0xAE JUMPI PUSH0 PUSH0 REVERT JUMPDEST POP PUSH2 0xB7 PUSH2 0x24E JUMP JUMPDEST PUSH1 0x40 MLOAD PUSH2 0xC4 SWAP2 SWAP1 PUSH2 0x479 JUMP JUMPDEST PUSH1 0x40 MLOAD DUP1 SWAP2 SUB SWAP1 RETURN JUMPDEST CALLVALUE DUP1 ISZERO PUSH2 0xD8 JUMPI PUSH0 PUSH0 REVERT JUMPDEST POP PUSH2 0xE1 PUSH2 0x272 JUMP JUMPDEST PUSH1 0x40 MLOAD PUSH2 0xEE SWAP2 SWAP1 PUSH2 0x4AA JUMP JUMPDEST PUSH1 0x40 MLOAD DUP1 SWAP2 SUB SWAP1 RETURN JUMPDEST CALLVALUE DUP1 ISZERO PUSH2 0x102 JUMPI PUSH0 PUSH0 REVERT JUMPDEST POP PUSH2 0x10B PUSH2 0x277 JUMP JUMPDEST STOP JUMPDEST CALLVALUE DUP1 ISZERO PUSH2 0x118 JUMPI PUSH0 PUSH0 REVERT JUMPDEST POP PUSH2 0x121 PUSH2 0x313 JUMP JUMPDEST PUSH1 0x40 MLOAD PUSH2 0x12E SWAP2 SWAP1 PUSH2 0x4AA JUMP JUMPDEST PUSH1 0x40 MLOAD DUP1 SWAP2 SUB SWAP1 RETURN JUMPDEST PUSH0 PUSH0 SWAP1 SLOAD SWAP1 PUSH2 0x100 EXP SWAP1 DIV PUSH20 0xFFFFFFFFFFFFFFFFFFFFFFFFFFFFFFFFFFFFFFFF AND PUSH20 0xFFFFFFFFFFFFFFFFFFFFFFFFFFFFFFFFFFFFFFFF AND CALLER PUSH20 0xFFFFFFFFFFFFFFFFFFFFFFFFFFFFFFFFFFFFFFFF AND EQ PUSH2 0x1C5 JUMPI PUSH1 0x40 MLOAD PUSH32 0x8C379A000000000000000000000000000000000000000000000000000000000 DUP2 MSTORE PUSH1 0x4 ADD PUSH2 0x1BC SWAP1 PUSH2 0x543 JUMP JUMPDEST PUSH1 0x40 MLOAD DUP1 SWAP2 SUB SWAP1 REVERT JUMPDEST TIMESTAMP PUSH1 0x2 DUP2 SWAP1 SSTORE POP PUSH32 0xF83057AAAC7FFDB8FEFFE00DD61F59EE27A79A2A5E10C07B422256182F37DD9E PUSH0 PUSH0 SWAP1 SLOAD SWAP1 PUSH2 0x100 EXP SWAP1 DIV PUSH20 0xFFFFFFFFFFFFFFFFFFFFFFFFFFFFFFFFFFFFFFFF AND PUSH1 0x2 SLOAD PUSH1 0x40 MLOAD PUSH2 0x21F SWAP3 SWAP2 SWAP1 PUSH2 0x561 JUMP JUMPDEST PUSH1 0x40 MLOAD DUP1 SWAP2 SUB SWAP1 LOG1 JUMP JUMPDEST PUSH1 0x1 PUSH0 SWAP1 SLOAD SWAP1 PUSH2 0x100 EXP SWAP1 DIV PUSH20 0xFFFFFFFFFFFFFFFFFFFFFFFFFFFFFFFFFFFFFFFF AND DUP2 JUMP JUMPDEST PUSH0 PUSH0 SWAP1 SLOAD SWAP1 PUSH2 0x100 EXP SWAP1 DIV PUSH20 0xFFFFFFFFFFFFFFFFFFFFFFFFFFFFFFFFFFFFFFFF AND DUP2 JUMP JUMPDEST PUSH1 0x3C DUP2 JUMP JUMPDEST PUSH1 0x3C PUSH1 0x2 SLOAD PUSH2 0x286 SWAP2 SWAP1 PUSH2 0x5B5 JUMP JUMPDEST TIMESTAMP GT PUSH2 0x2C7 JUMPI PUSH1 0x40 MLOAD PUSH32 0x8C379A000000000000000000000000000000000000000000000000000000000 DUP2 MSTORE PUSH1 0x4 ADD PUSH2 0x2BE SWAP1 PUSH2 0x632 JUMP JUMPDEST PUSH1 0x40 MLOAD DUP1 SWAP2 SUB SWAP1 REVERT JUMPDEST PUSH0 SELFBALANCE GT PUSH2 0x309 JUMPI PUSH1 0x40 MLOAD PUSH32 0x8C379A000000000000000000000000000000000000000000000000000000000 DUP2 MSTORE PUSH1 0x4 ADD PUSH2 0x300 SWAP1 PUSH2 0x69A JUMP JUMPDEST PUSH1 0x40 MLOAD DUP1 SWAP2 SUB SWAP1 REVERT JUMPDEST PUSH2 0x311 PUSH2 0x319 JUMP JUMPDEST JUMP JUMPDEST PUSH1 0x2 SLOAD DUP2 JUMP JUMPDEST PUSH0 SELFBALANCE SWAP1 POP PUSH1 0x1 PUSH0 SWAP1 SLOAD SWAP1 PUSH2 0x100 EXP SWAP1 DIV PUSH20 0xFFFFFFFFFFFFFFFFFFFFFFFFFFFFFFFFFFFFFFFF AND PUSH20 0xFFFFFFFFFFFFFFFFFFFFFFFFFFFFFFFFFFFFFFFF AND PUSH2 0x8FC DUP3 SWAP1 DUP2 ISZERO MUL SWAP1 PUSH1 0x40 MLOAD PUSH0 PUSH1 0x40 MLOAD DUP1 DUP4 SUB DUP2 DUP6 DUP9 DUP9 CALL SWAP4 POP POP POP POP ISZERO DUP1 ISZERO PUSH2 0x381 JUMPI RETURNDATASIZE PUSH0 PUSH0 RETURNDATACOPY RETURNDATASIZE PUSH0 REVERT JUMPDEST POP PUSH32 0x78E6250172D8E0A57D8D41F480F13581571A2D27BB2A93F5F7BD2511F5C22A6C PUSH0 PUSH0 SWAP1 SLOAD SWAP1 PUSH2 0x100 EXP SWAP1 DIV PUSH20 0xFFFFFFFFFFFFFFFFFFFFFFFFFFFFFFFFFFFFFFFF AND PUSH1 0x1 PUSH0 SWAP1 SLOAD SWAP1 PUSH2 0x100 EXP SWAP1 DIV PUSH20 0xFFFFFFFFFFFFFFFFFFFFFFFFFFFFFFFFFFFFFFFF AND DUP4 PUSH1 0x40 MLOAD PUSH2 0x3F6 SWAP4 SWAP3 SWAP2 SWAP1 PUSH2 0x713 JUMP JUMPDEST PUSH1 0x40 MLOAD DUP1 SWAP2 SUB SWAP1 LOG1 POP JUMP JUMPDEST PUSH0 PUSH20 0xFFFFFFFFFFFFFFFFFFFFFFFFFFFFFFFFFFFFFFFF DUP3 AND SWAP1 POP SWAP2 SWAP1 POP JUMP JUMPDEST PUSH0 PUSH2 0x42A DUP3 PUSH2 0x401 JUMP JUMPDEST SWAP1 POP SWAP2 SWAP1 POP JUMP JUMPDEST PUSH2 0x43A DUP2 PUSH2 0x420 JUMP JUMPDEST DUP3 MSTORE POP POP JUMP JUMPDEST PUSH0 PUSH1 0x20 DUP3 ADD SWAP1 POP PUSH2 0x453 PUSH0 DUP4 ADD DUP5 PUSH2 0x431 JUMP JUMPDEST SWAP3 SWAP2 POP POP JUMP JUMPDEST PUSH0 PUSH2 0x463 DUP3 PUSH2 0x401 JUMP JUMPDEST SWAP1 POP SWAP2 SWAP1 POP JUMP JUMPDEST PUSH2 0x473 DUP2 PUSH2 0x459 JUMP JUMPDEST DUP3 MSTORE POP POP JUMP JUMPDEST PUSH0 PUSH1 0x20 DUP3 ADD SWAP1 POP PUSH2 0x48C PUSH0 DUP4 ADD DUP5 PUSH2 0x46A JUMP JUMPDEST SWAP3 SWAP2 POP POP JUMP JUMPDEST PUSH0 DUP2 SWAP1 POP SWAP2 SWAP1 POP JUMP JUMPDEST PUSH2 0x4A4 DUP2 PUSH2 0x492 JUMP JUMPDEST DUP3 MSTORE POP POP JUMP JUMPDEST PUSH0 PUSH1 0x20 DUP3 ADD SWAP1 POP PUSH2 0x4BD PUSH0 DUP4 ADD DUP5 PUSH2 0x49B JUMP JUMPDEST SWAP3 SWAP2 POP POP JUMP JUMPDEST PUSH0 DUP3 DUP3 MSTORE PUSH1 0x20 DUP3 ADD SWAP1 POP SWAP3 SWAP2 POP POP JUMP JUMPDEST PUSH32 0x4F6E6C79207468652077616C6C657420686F6C6465722063616E2063616C6C20 PUSH0 DUP3 ADD MSTORE PUSH32 0x746869732066756E6374696F6E00000000000000000000000000000000000000 PUSH1 0x20 DUP3 ADD MSTORE POP JUMP JUMPDEST PUSH0 PUSH2 0x52D PUSH1 0x2D DUP4 PUSH2 0x4C3 JUMP JUMPDEST SWAP2 POP PUSH2 0x538 DUP3 PUSH2 0x4D3 JUMP JUMPDEST PUSH1 0x40 DUP3 ADD SWAP1 POP SWAP2 SWAP1 POP JUMP JUMPDEST PUSH0 PUSH1 0x20 DUP3 ADD SWAP1 POP DUP2 DUP2 SUB PUSH0 DUP4 ADD MSTORE PUSH2 0x55A DUP2 PUSH2 0x521 JUMP JUMPDEST SWAP1 POP SWAP2 SWAP1 POP JUMP JUMPDEST PUSH0 PUSH1 0x40 DUP3 ADD SWAP1 POP PUSH2 0x574 PUSH0 DUP4 ADD DUP6 PUSH2 0x46A JUMP JUMPDEST PUSH2 0x581 PUSH1 0x20 DUP4 ADD DUP5 PUSH2 0x49B JUMP JUMPDEST SWAP4 SWAP3 POP POP POP JUMP JUMPDEST PUSH32 0x4E487B7100000000000000000000000000000000000000000000000000000000 PUSH0 MSTORE PUSH1 0x11 PUSH1 0x4 MSTORE PUSH1 0x24 PUSH0 REVERT JUMPDEST PUSH0 PUSH2 0x5BF DUP3 PUSH2 0x492 JUMP JUMPDEST SWAP2 POP PUSH2 0x5CA DUP4 PUSH2 0x492 JUMP JUMPDEST SWAP3 POP DUP3 DUP3 ADD SWAP1 POP DUP1 DUP3 GT ISZERO PUSH2 0x5E2 JUMPI PUSH2 0x5E1 PUSH2 0x588 JUMP JUMPDEST JUMPDEST SWAP3 SWAP2 POP POP JUMP JUMPDEST PUSH32 0x57616C6C6574206973207374696C6C2061637469766500000000000000000000 PUSH0 DUP3 ADD MSTORE POP JUMP JUMPDEST PUSH0 PUSH2 0x61C PUSH1 0x16 DUP4 PUSH2 0x4C3 JUMP JUMPDEST SWAP2 POP PUSH2 0x627 DUP3 PUSH2 0x5E8 JUMP JUMPDEST PUSH1 0x20 DUP3 ADD SWAP1 POP SWAP2 SWAP1 POP JUMP JUMPDEST PUSH0 PUSH1 0x20 DUP3 ADD SWAP1 POP DUP2 DUP2 SUB PUSH0 DUP4 ADD MSTORE PUSH2 0x649 DUP2 PUSH2 0x610 JUMP JUMPDEST SWAP1 POP SWAP2 SWAP1 POP JUMP JUMPDEST PUSH32 0x4E6F2066756E647320746F207472616E73666572000000000000000000000000 PUSH0 DUP3 ADD MSTORE POP JUMP JUMPDEST PUSH0 PUSH2 0x684 PUSH1 0x14 DUP4 PUSH2 0x4C3 JUMP JUMPDEST SWAP2 POP PUSH2 0x68F DUP3 PUSH2 0x650 JUMP JUMPDEST PUSH1 0x20 DUP3 ADD SWAP1 POP SWAP2 SWAP1 POP JUMP JUMPDEST PUSH0 PUSH1 0x20 DUP3 ADD SWAP1 POP DUP2 DUP2 SUB PUSH0 DUP4 ADD MSTORE PUSH2 0x6B1 DUP2 PUSH2 0x678 JUMP JUMPDEST SWAP1 POP SWAP2 SWAP1 POP JUMP JUMPDEST PUSH0 DUP2 SWAP1 POP SWAP2 SWAP1 POP JUMP JUMPDEST PUSH0 PUSH2 0x6DB PUSH2 0x6D6 PUSH2 0x6D1 DUP5 PUSH2 0x401 JUMP JUMPDEST PUSH2 0x6B8 JUMP JUMPDEST PUSH2 0x401 JUMP JUMPDEST SWAP1 POP SWAP2 SWAP1 POP JUMP JUMPDEST PUSH0 PUSH2 0x6EC DUP3 PUSH2 0x6C1 JUMP JUMPDEST SWAP1 POP SWAP2 SWAP1 POP JUMP JUMPDEST PUSH0 PUSH2 0x6FD DUP3 PUSH2 0x6E2 JUMP JUMPDEST SWAP1 POP SWAP2 SWAP1 POP JUMP JUMPDEST PUSH2 0x70D DUP2 PUSH2 0x6F3 JUMP JUMPDEST DUP3 MSTORE POP POP JUMP JUMPDEST PUSH0 PUSH1 0x60 DUP3 ADD SWAP1 POP PUSH2 0x726 PUSH0 DUP4 ADD DUP7 PUSH2 0x46A JUMP JUMPDEST PUSH2 0x733 PUSH1 0x20 DUP4 ADD DUP6 PUSH2 0x704 JUMP JUMPDEST PUSH2 0x740 PUSH1 0x40 DUP4 ADD DUP5 PUSH2 0x49B JUMP JUMPDEST SWAP5 SWAP4 POP POP POP POP JUMP INVALID LOG2 PUSH5 0x6970667358 0x22 SLT KECCAK256 0xB9 DUP8 0xE9 PUSH0 LOG4 EXTCODEHASH BLOCKHASH 0xC9 0xB5 PUSH11 0x395B34ED0F384619CB4A66 TLOAD 0xEA CALLCODE 0xBA PUSH17 0x607277250BD164736F6C634300081B0033 "
				},
				"gasEstimates": {
					"creation": {
						"codeDepositCost": "383600",
						"executionCost": "infinite",
						"totalCost": "infinite"
					},
					"external": {
						"beneficiary()": "2508",
						"checkInactivity()": "infinite",
						"inactivityLimit()": "369",
						"lastActiveTime()": "2513",
						"updateActivity()": "30230",
						"walletHolder()": "2529"
					},
					"internal": {
						"_transferFunds()": "infinite"
					}
				},
				"methodIdentifiers": {
					"beneficiary()": "38af3eed",
					"checkInactivity()": "e79402aa",
					"inactivityLimit()": "bf2e4865",
					"lastActiveTime()": "ea8932d8",
					"updateActivity()": "1b0e1ffa",
					"walletHolder()": "a0d1345f"
				}
			},
			"storageLayout": {
				"storage": [
					{
						"astId": 3,
						"contract": "Life.sol:InheritanceWallet",
						"label": "walletHolder",
						"offset": 0,
						"slot": "0",
						"type": "t_address"
					},
					{
						"astId": 5,
						"contract": "Life.sol:InheritanceWallet",
						"label": "beneficiary",
						"offset": 0,
						"slot": "1",
						"type": "t_address_payable"
					},
					{
						"astId": 7,
						"contract": "Life.sol:InheritanceWallet",
						"label": "lastActiveTime",
						"offset": 0,
						"slot": "2",
						"type": "t_uint256"
					}
				],
				"types": {
					"t_address": {
						"encoding": "inplace",
						"label": "address",
						"numberOfBytes": "20"
					},
					"t_address_payable": {
						"encoding": "inplace",
						"label": "address payable",
						"numberOfBytes": "20"
					},
					"t_uint256": {
						"encoding": "inplace",
						"label": "uint256",
						"numberOfBytes": "32"
					}
				}
			},
			"userdoc": {
				"kind": "user",
				"methods": {},
				"version": 1
			}
		}
	}
}